:1000000000000320D1010000190B0000D10A0000FC
:10001000D10A0000D10A0000D10A0000D10A000074
:10002000D10A0000D10A0000D10A0000190B00001B
:10003000190B0000D10A0000F91D0000FD1D000091
:10004000190B0000190B0000190B0000190B000020
:10005000190B0000190B0000190B0000190B000010
:10006000190B0000190B0000190B0000190B000000
:10007000190B0000190B0000190B0000190B0000F0
:10008000190B0000190B0000190B0000190B0000E0
:10009000190B0000190B0000190B0000190B0000D0
:1000A000190B0000190B0000190B0000190B0000C0
:1000B000190B0000190B0000190B0000190B0000B0
:1000C000190B0000190B0000190B0000190B0000A0
:1000D000190B0000190B0000190B0000190B000090
:1000E000190B0000190B0000190B0000190B000080
:1000F000190B0000190B0000190B0000190B000070
:10010000190B0000190B0000190B0000190B00005F
:10011000190B00003D100000190B0000190B000026
:10012000190B0000190B0000190B0000190B00003F
:10013000190B0000190B0000190B0000190B00002F
:10014000190B0000190B0000190B0000190B00001F
:10015000190B0000190B0000190B0000190B00000F
:10016000190B0000190B0000190B0000190B0000FF
:10017000190B0000190B0000190B0000190B0000EF
:10018000190B0000190B0000190B0000190B0000DF
:10019000190B0000190B0000190B0000190B0000CF
:1001A000190B0000190B0000190B0000190B0000BF
:1001B000190B0000190B0000190B0000190B0000AF
:1001C000190B0000190B0000190B0000190B00009F
:1001D0005C4B4CF2205210B51A804DF628121A8052
:1001E00000BF00BF00F09CFC574B4FF030621A601C
:1001F000564A9A60564ADA60564B4FF470021A60BB
:10020000554B564A1A60564B1A78110703D51A787F
:1002100042F008021A70534B5349AA221A70534AEB
:10022000534B8B4204D252F8040F43F8040BF8E707
:10023000504B514900228B4202D243F8042BFAE77B
:100240004E494F4A002352F8230041F8230001335E
:10025000742BF8D14B4B4C4A802103F8011B93427D
:10026000FBD14A4B454A1A60494B8A221A70A3F5C2
:10027000805324225A70A0221A709A799207FCD5D2
:100280009A79D406FCD4434A937903F00C03082BE3
:10029000FAD1414B60221A7002331A78802AFCD1BD
:1002A0003C4B01221A715D225A719A799006FCD555
:1002B0009979384A4906FBD5384B394919600021EC
:1002C000596020231370937903F00C030C2BFAD19F
:1002D000344B354A1A60354A354C136813F4807331
:1002E00003D123604FF4A8531360324B324A1A6093
:1002F00000225A60072243F8042C304AC3F80C2D20
:1003000062B600F03FFD2368DA0705D52C4800F0FF
:10031000A5FC2C4B2C4A1A602C4B1B785B0609D58C
:10032000284C294B22689A4204D1254800F096FCBB
:100330000023236002F05CFC00F0F8FB00F0C0FB3F
:10034000FEE700BF0E20054030800440823F0400DD
:100350000100002B88ED00E0002008E0030000858C
:1003600002D0074000E007400C0CFF1F10300000D7
:100370003007FF1F0C0CFF1FB00DFF1F0002FF1FF7
:100380000000000000E400E064E400E008ED00E0AC
:10039000005006400040064001E007404480044011
:1003A0000000060204800440C010070010D0034083
:1003B00014D0034014E000E01FBF02000000202022
:1003C00021C102601CE00340A5C3945A00F007401D
:1003D000FFFFFFFFFFFFFFFFFFFFFFFFFFFFFFFF2D
:1003E000FFFFFFFFFFFFFFFFFFFFFFFFFFFFFFFF1D
:1003F000FFFFFFFFFFFFFFFFFFFFFFFFFFFFFFFF0D
:10040000FFFFFFFFFFFFFFFFFFFFFFFFDEF9FFFF23
:1004100010B5054C237833B9044B13B10448AFF33E
:1004200000800123237010BD0C0CFF1F0000000092
:1004300014300000084B10B51BB108490848AFF351
:1004400000800848036803B910BD074B002BFBD0A0
:10045000BDE81040184700BF00000000100CFF1F4F
:10046000143000000C0CFF1F0000000008219FED5D
:10047000020A024800F03EB800004842280CFF1F64
:1004800010B50A4C5A21204600F0F2FA4FF4FA70E7
:1004900000F026FC20466FF0590100F0E9FA4FF415
:1004A000FA70BDE8104000F01BBC00BF280CFF1F15
:1004B00017231622C821014800F0F8BA280CFF1FA4
:1004C000004870474C2D00000520704710207047F1
:1004D00010B5044600F0C6F8054B23604FF6FF73D5
:1004E000A4F84230A4F84430A4F84630204610BDA9
:1004F000342D000010B5044600F0D8F8B4F94200DD
:10050000431C17D0B4F94430013313D0B4F946304A
:1005100001330FD0C0B2012100F0B8FB94F84400C1
:10052000012100F0B3FB94F846000121BDE8104022
:1005300000F0ACBB10BD00BF70B5044600F060F821
:10054000B4F94230013336D0B4F94430013332D0FB
:10055000B4F9463001332ED023681E491A698A4205
:1005600032D11D4E5B691D4A934227D10521B4F952
:100570001A0010F0010302D009E0D20708D40133B9
:100580009BB28B4240FA03F21D46F6D370BD0025A4
:10059000755D94F8460005F0040100F071FB05F06C
:1005A000020194F8440000F06BFB05F0010194F89F
:1005B000420000F065FBB4F91A0070BD2046984770
:1005C00001460028D3D1F6E7204690472368064627
:1005D000C8E700BFC10400004C2D0000C9040000A2
:1005E00080207047B0F916305A1C08D0B0F91810A6
:1005F00011F1FF31D8B218BF012100F041BB7047A3
:10060000F8B50E4E05460F46012407E080208442CF
:100610004FEA44030CDCBC420DD01CB22B681B68B3
:10062000B342F3D02846984784424FEA4403F2DDB0
:10063000B5F91A00F8BD6C832046F8BDE10500004D
:10064000B0F916305A1C10B503D0017ED8B200F0B4
:1006500017FB00F021FB044600F01EFB001B0128E5
:10066000FAD910BDF0B400250F4F01824FF6FF7686
:1006700000214282838201224FF47A730760C6828E
:10068000C5618160C16080F820100163C162A0F87B
:10069000401041638163C163416081620283428390
:1006A00043848384F0BC70475C2D000070B5044621
:1006B0002DED028B807C0D460121B0EE408A00F0CA
:1006C000E5FAA07C012100F0DBFA207D012100F099
:1006D000DDFA207D002100F0D3FAB4F91600431CA6
:1006E00007D0C0B2012100F0D1FA23682046DB68B0
:1006F0009847236884ED078A29465B682046984717
:10070000BDEC028B236820469B68BDE8704018470B
:1007100070B590F82040CD4300294FF00003B8BFDA
:100720004942ED0F012C2DED048BA0F84050C16221
:1007300083608362436040F0B580B0F91030D0ED43
:10074000076A9FED7B7AB0F9225007EE903AF8EEF7
:10075000E77A002A67EEA67A044687EE878A40F396
:10076000D980B0F92400B4F91A3091FBF3F607EE02
:10077000905AF8EEE75A07EE900AB8EEE76AF7EEFD
:10078000007A87EE867AC7EEA58A07EE902ADFED1B
:10079000696AF8EEE77A77EE288A87EEA69A07EE7E
:1007A000906A38EEA87AF8EEE77A67EE677AE9EEB3
:1007B000097AF5EEC07AF1EE10FA23DB17EE900A13
:1007C00001F094FE41EC100B01F0FAFB51EC100B20
:1007D00002F0B8F907EE900A39EE679AB4F92250A0
:1007E000B4F91A30B4F92400E16AC9EE287AB4EEFB
:1007F000E78AF1EE10FA58BFB0EE678A07EE905A1A
:10080000F8EEE75A6A0006EE902A07EE903AF8EE04
:10081000E66A28EE086AB8EEE77AC6EE267A67EE50
:10082000877AFDEEE77A17EE903A03FB05F292FB2A
:10083000F0F29E188E42C4ED0C7A626307DD054427
:1008400001FB00F090FBF5F0091A61632063F0EE04
:10085000006AC6EEA57AC7EE876A16EE900A01F026
:1008600045FE41EC100B01F0ABFB2FA3D3E90023B5
:1008700051EC100B01F08EFE02F03CF9DFED2D7A09
:10088000B4F91A30A063C7EE886ABDEC048B07EE9A
:10089000103AB8EEC77AC6EE877AFDEEE77AC4ED75
:1008A0000F7A70BDB0F91040DFED235AD0ED076A22
:1008B000036307EE104AB8EEC77AB0F91A404363F3
:1008C00085EE876A07EE904AF8EEE77A86EE277A99
:1008D000C7EE267AFDEEE77A17EE903A03FB01F4B5
:1008E000A242C0ED0F7A10DD07EE902AB8EEE77A4B
:1008F00007EE901AF8EEE77ABDEC048BC7EE276A94
:10090000FDEEE66AC0ED0E6A70BDBDEC048BC0ED75
:100910000E7A70BD07EE905AB0F91A30B0F9240083
:10092000F8EEE75A6EE700BF0000000040A1244146
:100930000000704200247449C0E1644CC36A002B7B
:1009400010B408DD826A90F82010013B01320129C1
:10095000C362826202D05DF8044B7047002BFAD06C
:10096000416B8B4214DC816B44689B00C3F1010333
:1009700004EB410292FBF3F28A1A04EB420191FB71
:10098000F3F403FB1413826343605DF8044B704778
:10099000036B9A42DFDC11DA816B4468920001320A
:1009A00004EB410393FBF2F3CB1A04EB430191FBFD
:1009B000F2F402FB141283634260CCE7C36B8363DF
:1009C000C9E700BFF8B5C36A002B29DDC568044636
:1009D0005DBB94F84010A07C00F052F90121207D0D
:1009E00000F04EF900F058F907462046A66BFFF7D5
:1009F000A5FF00F051F9054600F04EF98542FBD005
:100A00000021207D00F03CF900F046F9C31B9E4216
:100A1000A06095BF0120F61A06463046E660F8BD94
:100A200000238360C3601846F8BD86687EB1322D0E
:100A30000AD800F031F9801B8542CAD900F02CF9A0
:100A4000801B8542F5D8C4E701F03EF9F1E700F0DC
:100A500023F90646EBE700BF10B500220446FFF776
:100A600057FE2046FFF7AEFF0028FAD110BD00BFA9
:100A7000B0F91030B0F91A2010B401FB03F1064CA4
:100A800002FB01F384FB03211944DB17C3EB212193
:100A90005DF8044BFFF7E0BFB7600BB60048704746
:100AA0008C2D0000062070472020704710B50446AA
:100AB000FFF70EFD014B2360204610BD742D000092
:100AC00008B5FFF7D3FCFFF7DBFC01F0FDF8FAE710
:100AD00008B5104C08E0236859050DD423681A05A1
:100AE0000FD42368DB0411D423685803F3D500F036
:100AF000A5FA23685905F1D500F00EF823681A0508
:100B0000EFD500F009F82368DB04EDD500F004F818
:100B1000EAE700BF3480044008B5FFF7D9FF00BF03
:100B2000014B10221A80704700200540704700BF1B
:100B3000084A1378802B01D0002070470649074BE4
:100B400007480860002119701378802BFCD0012021
:100B5000704700BF03E007404480044001E00740C5
:100B600000002822094A1378012B01D00020704789
:100B700003F1804303F5FC23602119701378802B67
:100B8000FCD1034B034A1A600120704703E0074081
:100B9000448004400000060210B4114B53F830208A
:100BA00092F8804234B1012379B182F880305DF847
:100BB000044B704703EBC0035B681A6851B922F01D
:100BC00002021A605DF8044B704782F800315DF84C
:100BD000044B704742F003021A605DF8044B704703
:100BE000942D00001C4A02EBC00301295B6811D060
:100BF00004291BD052F83000002280F8802229B14D
:100C0000022920D0032922D01A6070474FF4807245
:100C10001A60704752F830004FF4A27280F88012C8
:100C20001A601A6822F020021A60704752F83010D9
:100C30004FF4A272012081F880021A601A6842F013
:100C400020021A60704740F203121A6070474FF496
:100C500081721A60704700BF942D000030B4054BBC
:100C6000054D064C002210211A602A602060196090
:100C700030BC704714D0034004D0034000D0034080
:100C80003F2801D8FFF788BF704700BF3F2801D831
:100C9000FFF7A8BF704700BF72B60D490D4B0E4A53
:100CA0001B680868126862B6520102D5322B88BFF1
:100CB0000130C3F52F33094903F21F334FF47A7221
:100CC0009B08A1FB031302FB00F000EB93007047AD
:100CD000700CFF1F18E000E004ED00E0176CC11677
:100CE0002DE9F843054672B6224F234B234A1B6871
:100CF0003C68126862B6520102D5322B88BF0134BB
:100D0000B5B3C3F52F3303F21F331D4EDFF86890E0
:100D1000DFF868809B084FF47A72A6FB031302FB8E
:100D200004F404EB930472B6D9F800103A68D8F8CA
:100D300000E062B6C1F52F3303F21F339B08A6FB18
:100D400003031EF0806FC4EB93034FF47A7002D05C
:100D5000322988BF013200FB0233B3F57A7F04D316
:100D6000013D05D004F57A74DDE700F0ADFFDAE768
:100D7000BDE8F883700CFF1F18E000E004ED00E010
:100D8000176CC116F8B54E4B4E48DFF85CC14E4C9F
:100D90004E49DFF858E14E4E4E4D4F4F4FF0006236
:100DA0001A604FF080521A604FF000521A604FF0F4
:100DB00080421A604FF000421A600022026028232D
:100DC0004EF6FF70CCF80000CEF8003023600EF530
:100DD000012E0B6033602B6006F500263B6005F5A5
:100DE0000025A36207F500278B6204F5012401F5B5
:100DF000012106F6E87605F6E87507F57F671031FC
:100E00000EF1100E203433602B60CEF800303B60C2
:100E10000B602360314CBB618B6109212160A7F518
:100E2000002704F58054203F08343A602060BB60FE
:100E3000E36047F8041C04F5FD2407F5FE2704379A
:100E400004F2FC7422603860A360FB6044F8041C68
:100E5000083404F6FC74C7F8FC2F2060A4F5E124E4
:100E6000A4F2DC7433602B60C7F8F81F21681C48BB
:100E700041F40071216001681A4C0EF57F4E0EF1AD
:100E8000E80E07F5883706F5803605F5803541F020
:100E900000710160CEF8002047F6FF71082239602A
:100EA00033602B60226000F0B1FF1920FFF718FFBC
:100EB00000F02AFE40F21310BDE8F840FFF710BF23
:100EC00004E100E004800340148003401C800340E0
:100ED000248003402C800340348003400080034082
:100EE0000480044000900C40088003400C800340C4
:100EF00030B472B62B4A13781D0706D52A4B196AEF
:100F0000002936D0996A002941D053781C0706D5AC
:100F1000254B196C00293ED0996C002939D0937863
:100F2000190705D5204B196E002936D0996E89B165
:100F3000D3781B0707D51C4BD3F880207AB3D3F89E
:100F4000882011213AB162B6184B00221A7030BCC9
:100F500000F062BE0D21154C154D227843F831503A
:100F600003EBC1030830013A5860227062B630BC0E
:100F7000704704220D4C0F4D217843F8325003EB9B
:100F8000C20308304A1E5860227062B6EFE705219E
:100F9000E1E70921DFE70822ECE70C22EAE710226B
:100FA000E8E700BF942F00000000FF1F490DFF1F5E
:100FB000C800400088004000431E032B1DD81B4A78
:100FC000400140F0100030B4104472B6184CE25C9E
:100FD000032A1BD8DFE802F00212151703220D883E
:100FE000E25410F0080F14BFC823882343EA0543D6
:100FF00008310360416062B630BC7047083002229D
:10100000EDE70522EBE708300422E8E7094A52F849
:10101000230038B1084A52F82300416042F82310F7
:1010200062B6E9E742F82310034AF7E70000FF1F22
:10103000580DFF1F200DFF1F300DFF1F2DE9F04F32
:10104000DFF818B3DFF818A387B044E0AE4F4FEADB
:10105000930807EBC809013ED9F8042003F0080300
:10106000F6B2A2F1080003F0FF04002B40F0048167
:1010700057F838301B0C99B222F8081C002B00F0EE
:10108000F280A24B22F8064C42F8044C53F826207A
:10109000002A00F06E819E4D55F8263058609D4C18
:1010A00045F8260034F81630194424F8161000F0DC
:1010B00093FD002800F05681974A984B19F0080FCD
:1010C00000F1080018BF1346C9F8040047F838308B
:1010D00008238BF800309BF80040E4B261071BD571
:1010E0008F4B1B78ABB18F490A7802F0FF032AB10E
:1010F000013BDBB20B70002B00F0EF848A490A78C9
:1011000002F0FF032AB1013BDBB20B70002B00F0B1
:10111000F78004238BF8003004F0080303F0FF028B
:10112000002B00F0D6809AF80030DBB21E098DD17A
:101130009C08DFF8D49159F8342009EBC401C2F3BC
:101140008302013A49680C2A7ED8DFE802F08181E7
:101150007D7D7D7D7D7D477D7D7D07000868734DAC
:101160004A68734F734E286081B240F281606A4BC7
:101170006A604FF0010E0022814249F834303A6033
:10118000C9F81020C9F8182086F800E05E4C00F27B
:10119000F480B1F5D06F80F07883B1F5817F00F0F5
:1011A000628300F28782802900F0EC82822940F07D
:1011B0001E83A98801F07F01042900F218835E488C
:1011C0005E4C89000844227062700278930740F1F7
:1011D000798384F800E04FF0020ED8E2544F3A6869
:1011E00042B3574B534E5749188834780D784028EE
:1011F000864645F0020828BF4FF0400E002C84F0D0
:1012000001043470CEEB00000CBF8824C82409EB25
:10121000C80680B285F0010544EA0E447260188069
:1012200049F8384072440D7018B9BEF1400F18BF2C
:1012300000223A603D4B1A88B2F5A06F04D100211C
:101240009A785970404B1A70404A012313703FE757
:10125000364A158842F22100854200F0FF812E4A6D
:1012600049F83420F0E72C4A2C4B19F0080F18BF2E
:10127000134647F838302BE700F0CEFC344A3549A6
:1012800052F82630002B00F0B68158688C5D42F889
:10129000260003F10802C9F80420032C05D8DFE872
:1012A00004F0120F150204228A551A8819F0080F4B
:1012B0000CBF8823C82343EA024347F8383007E7C6
:1012C00002228A55F1E703228A55EEE705228A5564
:1012D000EBE7E00700F11A82210600F14982A2073C
:1012E00006D51D4A1D4913780220DBB21370087021
:1012F000E30602D5194B10221A7007B0BDE8F08F33
:1013000000F0BEFC05E700BF0000FF1FCC0CFF1F74
:10131000780CFF1F9C0DFF1FC80040008800400094
:10132000540DFF1FDD0CFF1F5C0DFF1F400DFF1F45
:10133000740CFF1FDC0CFF1FC02007404C0DFF1F6B
:10134000880CFF1F480DFF1F98200740942007407E
:10135000200DFF1F580DFF1F8820074080200740E9
:1013600090200740AB4A47F83800137801331370D8
:10137000AEE643F82600A84D91E642F221008142F4
:1013800000F0358100F2AF81B1F5086F00F01B82EB
:10139000B1F5106F40F02B82226AA049A87808703E
:1013A000120600F14583D9F828209D49130600F163
:1013B0003A83D9F830209A49150600F12F83D9F8DD
:1013C00038209749140600F12483D9F84020944925
:1013D000100600F11983D9F848209149120600F14E
:1013E0000E83D9F850208E49130600F10383D9F8F3
:1013F00058208B49150600F1F882D9F860208849F9
:10140000140600F12983D9F868208549100600F1F7
:101410001E83D9F870208249120600F11383D9F88F
:1014200078207F49130600F10883D9F880207C4991
:10143000150600F11C83D9F888207949140600F1BB
:101440001083D9F890207649100600F1C882D9F8A7
:1014500098207349120600F1BC827248724A73499F
:10146000019073486C4D734C0497002305960295C8
:10147000804617460E461D460394386828B14468D6
:1014800000F0CAFB2046002CF9D100233B60029BF0
:1014900030681A46002342F8253028B1446800F02D
:1014A000BBFB2046002CF9D100223260019A98F84B
:1014B00000301146002241F8042B039A0191023BAF
:1014C0004FF0000122F81510032B09D8DFE813F0C4
:1014D0004B0104004B0104004FF0010388F8003079
:1014E0000135042D07F1040706F1040608F101088F
:1014F000C3D1514C514B2278464D049F059E00218B
:1015000029701A70130700F14F8262784C49DFF896
:1015100010810A7010074FF00001C9F83010C9F8A7
:10152000381000F12B824749A2780A700021C9F8CF
:101530005010C9F858101107DFF8E48000F1DC8181
:10154000E2784149364C0A7000211207C9F8701040
:10155000C9F8781000F1B98133780193002183F044
:101560000102C9F89010C9F8981000200290804636
:101570008446044635490D7845F0020E09EBCE034A
:101580000393019B002B039B5C600CBF8824C82441
:1015900044EA080385F0010449F83E3032700C70CB
:1015A000DFF87CE02A4BDFF8A480002840F0268199
:1015B000BCF1400F1BD144F0020C09EBCC03029CA0
:1015C000DFF85CE05C60002A40F02E81020442F00B
:1015D00088029DF804304EF83C20044433700D70AE
:1015E0002346402803D100201A4A3B6010801A4A43
:1015F0000123137028E68B5D032B00F22D8101A2DD
:1016000052F823F0D1100000D11000005B17000049
:1016100061170000490DFF1F780CFF1F540DFF1FBD
:101620000000FF1F300DFF1FCC0CFF1F200DFF1F00
:10163000580DFF1F9C0DFF1F942F0000C420074072
:10164000C8200740CC200740D0200740480DFF1F8E
:10165000DC0CFF1F880CFF1F94200740928892B972
:10166000B14A0D784878157050708D78C8789570AB
:10167000D07010680D79157186284D79897955716A
:10168000917100F0A580A949A94E0A78307882F0BE
:101690000105002842F002020D700CBF8821C8210C
:1016A00049F8321009EBC20280F0010000213070CD
:1016B0005160D4E540F20232914240F08D80A98819
:1016C00001F07F01042900F292806A88002A40F02C
:1016D0008E809848CDF804E089000844017841F0F4
:1016E0000201017041E742F2212081427BD1A988A9
:1016F000002940F0E480904B904A9148AC781D68F6
:101700001560CDF804E00A4604702EE78D4B8E4834
:1017100086491A614FF0020E80F800E0854F0A708A
:101720008A49196099608A4E8A4D8B4C9A610D21C5
:101730003970FF213170DFF840E229702270874D47
:10174000874A8EF800109F27012406F8047C5D600C
:101750000470DA6007B0BDE8F08F00238B55B7E462
:1017600001238B55B4E44FF0000388F80030B7E64E
:101770007049784B80220D2008701A70A2077FF5FF
:10178000B7ADAEE5774C4FF0020E22706270EA887A
:10179000724580F0A38165490D78402A944645F052
:1017A000020E28BF4FF0400C04EB0C0309EBCE00F7
:1017B0000293012344604FEA0C48CCEB02000193F2
:1017C0000022C824E4E6684A664C12782270DEE7FC
:1017D000664A0F21117056E7B1F5A06F07D10123BA
:1017E00000220193C1E642F221329142F7D0514AE0
:1017F0000F231370544A0123137025E540287FF608
:10180000DAAE44F002040EEBC401029E4E60BAB19F
:101810009DF80410564A19703346403888F8005035
:1018200040334EF83420DFE69DF804303370020474
:10183000029B0D7042F0C80203444EF83C20D0E6F3
:101840009DF804101970029B404A88F800504038F7
:1018500040334EF83420C7E619F0080F0CBF0223BE
:1018600003238B5534E4A98801F07F010429BED8F5
:101870006A88002ABBD12F48CDF804E089000844CB
:10188000017821F0020101706FE63A4A5468002C99
:10189000ADD06888B5F804E003E00C325468002C41
:1018A000A5D013888342F8D153887345F5D1000A37
:1018B00003280CBF94F800E0B2F808E067E7CDF821
:1018C00004E052E64FF0020E61E700F085F90028CF
:1018D00000F0F18008301D4AC4F88400C4F880206C
:1018E00000F07AF9002800F0E0800830204AC9F8BA
:1018F0008C00C9F888202FE600F06EF9002800F06F
:10190000E6800830114AC8F86400C8F8602000F08A
:1019100063F9002800F0D5800830154AC9F86C003A
:10192000C9F868200CE600BFA40DFF1F480DFF1F7B
:10193000DC0CFF1FC0200740700CFF1FAC0DFF1F09
:10194000680DFF1F0000FF1F942007408800400023
:101950008820074080200740982007408C0CFF1FFC
:10196000E00CFF1F4C0DFF1F540DFF1FDD0CFF1F70
:10197000C8004000982F00008C20074000F02CF990
:10198000002800F08C8008305D4AC8F84400C8F890
:10199000402000F021F900287BD00830594AC9F8CE
:1019A0004C00C9F84820BEE500F016F900286AD0BE
:1019B0000830534AC9F82400C9F8202000F00CF977
:1019C00000285AD008304F4AC9F82C00C9F82820FE
:1019D0009BE5D1F89C00083800F01EF93DE5D1F8F0
:1019E0009400083800F018F931E5C86D083800F0A7
:1019F00013F902E5486D083800F00EF9F7E4C86CF9
:101A0000083800F009F9ECE4486C083800F004F9F3
:101A1000E1E4C86B083800F0FFF8D6E4486B0838FA
:101A200000F0FAF8CBE4C86A083800F0F5F8C0E432
:101A3000606A083800F0F0F8B5E4C86F083800F0C4
:101A4000EBF8F2E4486F083800F0E6F8E7E4C86E17
:101A5000083800F0E1F8DCE4486E083800F0DCF803
:101A6000D1E4D1F88C00083800F0D6F8E9E4D1F8D8
:101A70008400083800F0D0F8DDE42A78C9F828009E
:101A800001322A7041E52A78C9F8200001322A7013
:101A900094E72A78C9F8480001322A7043E52A7889
:101AA000C8F8400001322A7073E72A78C9F8880024
:101AB00001322A7050E52A78C4F8800001322A7079
:101AC0000EE72A78C9F8680001322A7038E52A78CA
:101AD000C8F8600001322A7019E700BEBEF1400F5D
:101AE000F44628BF4FF0400C04EB0C030293012393
:101AF000CCEB0E004FEA0C48002201933AE500BF00
:101B000088004000C80040002DE9F041274C00F05B
:101B1000EFF9002204F1A00023461A605A6008334E
:101B200083424FF00001F8D12148224A0368DFF8D0
:101B30009CE0214E214D224FDFF894C0DFF89480C5
:101B400043F480230360136843F04073136003235E
:101B50008EF80030A023337002F5C922C4F30723A6
:101B600000F528302B708030C4F3074310323B70EF
:101B7000240EFF230470134D8CF80030124888F8AF
:101B800000301370012306F8AC3C4FF400140EF83B
:101B9000441C7026102107F82C3C2E70046082F83B
:101BA000F810AEF1440EBDE8F08100BF0000FF1F49
:101BB0003480044000D80040402107409C2007406A
:101BC000B020074035E400E004E100E04421074094
:101BD000802007408820074072B60D480268B2FA9C
:101BE00082F30B2B10DC4FF00041D94022EA0102B6
:101BF000026062B6074803EBC303DB00C218002192
:101C0000C15010465160704762B60020704700BF57
:101C10003007FF1FD003FF1F0D4B0E4AC31AA2FB54
:101C200003231B090B2B0CD80B4A127852B972B63E
:101C30000A484FF00041026821FA03F31A43026098
:101C400062B67047064A1278002AF0D0FFF750B902
:101C5000D003FF1F398EE338490DFF1F3007FF1FE8
:101C6000540DFF1F044B054A1B6890881BB11A884E
:101C70005B88D31A18447047640DFF1F9C0DFF1F2B
:101C800038B50E4B1B7873B90D4C216861B103F068
:101C9000FF054B880B800420FFF78EF9256038BDC7
:101CA000084B01221A7038BDFFF796FF0028F7D0C5
:101CB0000146BDE838400420FFF77EB95D0DFF1FE7
:101CC000600DFF1F5C0DFF1F2DE9F843314E337887
:101CD00093B1314F3A787AB90122D9073A7036D4A4
:101CE0009A0719D400225B073A7005D52B4B1A6866
:101CF00012B1EFF305820AB1BDE8F883EFF310816A
:101D000072B6186818B1264C2278002A2ED0002905
:101D1000F2D162B6BDE8F883DFF8908098F8002031
:101D2000002ADFD0DFF88890002405E0013498F81D
:101D30000030E4B2A34212D959F824502B68284647
:101D40001B6998470028F1D02B699847EEE7FFF709
:101D500089FFC8B9134B1B781BB93378C0E73378B8
:101D6000C0E7337803F0FE033370B9E745691D60BF
:101D7000012323705DB1AA6101B962B600254577E0
:101D8000836898472570B7E700F0B0F8E2E7064BA4
:101D90001D60F1E73407FF1F690DFF1F780DFF1F5E
:101DA0007C0DFF1F3707FF1F740DFF1F980DFF1FCE
:101DB000800DFF1F70B5EFF3108272B60C4C2068D7
:101DC00080B10C4E00254369236073B19D6102B957
:101DD00062B6457783689847EFF3108272B6206841
:101DE0000028F0D102B962B670BD3360EFE700BFE2
:101DF0006C0DFF1F700DFF1FFFF7DCBF024A136859
:101E000001331360704700BF700CFF1F30B42948C6
:101E1000294A2A4B2A4D6024E121047011701B7855
:101E2000284C082B30D00A2B2748284937D00C2BB8
:101E30000CBF35225D2212232A60236002600B60F2
:101E4000234B24491B78244ABBB101230B60136048
:101E5000224B23491B78234A012B26D9042B0FD967
:101E6000082B1ED9102B94BF862387230B60136089
:101E70001D4B01221A7030BC70470B601360E7E7FE
:101E800084230B601360F3E700F58E200F490830C0
:101E9000212213232A60236002600B60D0E73922DD
:101EA000F7E785230B601360E2E780230B60136084
:101EB000DEE700BF00400740014007403507FF1F35
:101EC00008B003400CB0034008B00B400CB00B400E
:101ED0009A0DFF1F20B0034020B00B403607FF1FB4
:101EE00024B0034024B00B40990DFF1F704700BF82
:101EF00010B584B072B6FEF71BFE184A184B19498C
:101F00001160702280211A701A46197013781B060E
:101F1000FCD5154B1C68FEF725FE62B6134B9C42A0
:101F20009CBF04EB840464002046114C01A90A22E2
:101F300000F020F801A92046002311F8012B0133FD
:101F40003AB10A2B20F8022FF7D11623237004B0E0
:101F500010BD5B00DBB2237004B010BD0400024072
:101F600000000240000007410C0002407F969800EC
:101F7000C407FF1FF0B44D1E2E46002400E00134BC
:101F8000B0FBF2F302FB1300092800F130078ABF0F
:101F90003730F8B2C0B206F8010F1846002BEED168
:101FA0000A1953704CB1107815F8016F287001337D
:101FB000E01A834202F80169F5DB0846F0BC70477D
:101FC0002DE9F0432DED028B8BB055EC104B00F05A
:101FD00057F8294BB0EE408AF0EE608A93F9006022
:101FE000731C12D022462B462046294600F06CFD79
:101FF000074650B94FF000084FF000092046294627
:1020000042464B4600F038FD40B9B0EE480AF0EECB
:10201000680A0BB0BDEC028BBDE8F083174B089744
:102020000122CDE90445CDE902458DE80C00B6B1A9
:1020300042464B464046494600F0D6FB022ECDE9CB
:1020400006010ED100F0CEFD21230360089B73B979
:102050009DED060B0BB0BDEC028BBDE8F083CDE926
:102060000689684600F0DCF80028EFD1EAE700F0C6
:10207000B9FD089B0360EBE7DA07FF1FEC2F0000B8
:102080002DE9F041654955EC104B0E462940B1420F
:1020900000F09780002D2B4610EE102A74DD2F15CE
:1020A0007FD0A7F2FF37C3F31303F90743F480137C
:1020B00065D403EBD27100260B447F105200B64664
:1020C00016204FF400110EEB01049C424FEAD2752A
:1020D0004FEA420203DC1B1B04EB010E0E440138E5
:1020E00005EB43034FEA5101EDD1844620244FF024
:1020F000004109E020D003EBD275013C4FEA5101C9
:102100002B444FEA420220D09E4501EB0C05F1DA48
:10211000002D05EB010C09DBF0469542CEEB0303E5
:1021200000D9013B521B0844C646E4E7BCF1000F4E
:10213000F2DB0EF10108F0E795421ED8002D05EB09
:10214000010C50DB98460023ECE7134304D0421CFB
:102150004DD000F00103184440087110F30701F15D
:102160007F5101F5001148BF40F0004001EB0753DB
:10217000024643EC102BBDE8F0817346BBE75B00E1
:1021800003EBD273520094E725F00041214328D09D
:10219000ADBB2F46D30A153F5205002BFAD0DD0206
:1021A00028D4002100E001465B00DC0201F10100BF
:1021B000F9D5C0F1200422FA04F423437F1A8240A7
:1021C0006FE710EE102A2B4610EE100A294600F099
:1021D000E1F922462B4600F02BF841EC100BBDE84C
:1021E000F081BDE8F081BCF1000FA2DAAAE7013668
:1021F0002046B2E720244FF0FF310020DBE710EE4D
:10220000102A2B462046294600F010F802460B46BD
:1022100000F0EAFA41EC100BBDE8F0810000F07F1D
:102220000020704781F0004102E000BF83F00043CE
:1022300030B54FEA41044FEA430594EA050F08BF61
:1022400090EA020F1FBF54EA000C55EA020C7FEA25
:10225000645C7FEA655C00F0E2804FEA5454D4EBA2
:102260005555B8BF6D420CDD2C4480EA020281EA6C
:10227000030382EA000083EA010180EA020281EAA4
:102280000303362D88BF30BD11F0004F4FEA0131F6
:102290004FF4801C4CEA113102D0404261EB410105
:1022A00013F0004F4FEA03334CEA133302D052428B
:1022B00063EB430394EA050F00F0A780A4F1010447
:1022C000D5F1200E0DDB02FA0EFC22FA05F2801881
:1022D00041F1000103FA0EF2801843FA05F3594167
:1022E0000EE0A5F120050EF1200E012A03FA0EFCE6
:1022F00028BF4CF0020C43FA05F3C01851EBE37110
:1023000001F0004507D54FF0000EDCF1000C7EEB2C
:1023100000006EEB0101B1F5801F1BD3B1F5001F6A
:102320000CD349085FEA30004FEA3C0C04F1010489
:102330004FEA445212F5800F80F09A80BCF1004FB2
:1023400008BF5FEA500C50F1000041EB045141EA34
:10235000050130BD5FEA4C0C404141EB010111F435
:10236000801FA4F10104E9D191F0000F04BF0146E0
:102370000020B1FA81F308BF2033A3F10B03B3F1BE
:1023800020020CDA0C3208DD02F1140CC2F10C024E
:1023900001FA0CF021FA02F10CE002F11402D8BFAC
:1023A000C2F1200C01FA02F120FA0CFCDCBF41EA78
:1023B0000C019040E41AA2BF01EB0451294330BD47
:1023C0006FEA04041F3C1CDA0C340EDC04F1140424
:1023D000C4F1200220FA04F001FA02F340EA0300FB
:1023E00021FA04F345EA030130BDC4F10C04C4F141
:1023F000200220FA02F001FA04F340EA0300294621
:1024000030BD21FA04F0294630BD94F0000F83F46A
:10241000801306BF81F480110134013D4EE77FEA4D
:10242000645C18BF7FEA655C29D094EA050F08BF99
:1024300090EA020F05D054EA000C04BF194610467A
:1024400030BD91EA030F1EBF0021002030BD5FEABE
:10245000545C05D14000494128BF41F0004130BDE6
:1024600014F580043CBF01F5801130BD01F000453A
:1024700045F0FE4141F470014FF0000030BD7FEAAD
:10248000645C1ABF194610467FEA655C1CBF0B46A8
:10249000024650EA013406BF52EA033591EA030FBF
:1024A00041F4002130BD00BF90F0000F04BF0021B7
:1024B000704730B54FF4806404F132044FF00005EA
:1024C0004FF0000150E700BF90F0000F04BF002163
:1024D000704730B54FF4806404F1320410F00045C9
:1024E00048BF40424FF000013EE700BF42004FEAC4
:1024F000E2014FEA31014FEA02701FBF12F07F4341
:1025000093F07F4F81F06051704792F0000F14BF3D
:1025100093F07F4F704730B54FF4607401F0004581
:1025200021F0004120E700BF50EA010208BF7047D8
:1025300030B54FF000050AE050EA010208BF7047CD
:1025400030B511F0004502D5404261EB41014FF436
:10255000806404F132045FEA915C3FF4DCAE4FF03A
:1025600003025FEADC0C18BF03325FEADC0C18BF21
:10257000033202EBDC02C2F1200300FA03FC20FA72
:1025800002F001FA03FE40EA0E0021FA02F11444BF
:10259000C1E600BF70B54FF0FF0C4CF4E06C1CEAD4
:1025A00011541DBF1CEA135594EA0C0F95EA0C0F49
:1025B00000F0DEF82C4481EA030621EA4C5123EABC
:1025C0004C5350EA013518BF52EA033541F48011EB
:1025D00043F4801338D0A0FB02CE4FF00005E1FB9E
:1025E00002E506F00042E0FB03E54FF00006E1FBE8
:1025F00003569CF0000F18BF4EF0010EA4F1FF042B
:10260000B6F5007F64F5407404D25FEA4E0E6D416A
:1026100046EB060642EAC62141EA55514FEAC5207B
:1026200040EA5E504FEACE2EB4F1FD0C88BFBCF5F7
:10263000E06F1ED8BEF1004F08BF5FEA500E50F1A8
:10264000000041EB045170BD06F0004646EA01016E
:1026500040EA020081EA0301B4EB5C04C2BFD4EBA0
:102660000C0541EA045170BD41F480114FF0000E99
:10267000013C00F3AB8014F1360FDEBF002001F007
:10268000004170BDC4F10004203C35DA0C341BDC81
:1026900004F11404C4F1200500FA05F320FA04F053
:1026A00001FA05F240EA020001F0004221F0004187
:1026B00010EBD37021FA04F642EB06015EEA430EFA
:1026C00008BF20EAD37070BDC4F10C04C4F120052A
:1026D00000FA04F320FA05F001FA04F240EA0200DD
:1026E00001F0004110EBD37041F100015EEA430EAE
:1026F00008BF20EAD37070BDC4F1200500FA05F2CE
:102700004EEA020E20FA04F301FA05F243EA02034C
:1027100021FA04F001F0004121FA04F220EA02005B
:1027200000EBD3705EEA430E08BF20EAD37070BDA1
:1027300094F0000F0FD101F00046400041EB010181
:1027400011F4801F08BF013CF7D041EA060195F063
:10275000000F18BF704703F00046520043EB03031D
:1027600013F4801F08BF013DF7D043EA060370470A
:1027700094EA0C0F0CEA135518BF95EA0C0F0CD015
:1027800050EA410618BF52EA4306D1D181EA03015B
:1027900001F000414FF0000070BD50EA410606BF55
:1027A0001046194652EA430619D094EA0C0F02D19A
:1027B00050EA013613D195EA0C0F05D152EA0336DF
:1027C0001CBF104619460AD181EA030101F00041FD
:1027D00041F0FE4141F470014FF0000070BD41F046
:1027E000FE4141F4780170BD70B54FF0FF0C4CF420
:1027F000E06C1CEA11541DBF1CEA135594EA0C0F3F
:1028000095EA0C0F00F0A7F8A4EB050481EA030E8B
:1028100052EA03354FEA013100F088804FEA033372
:102820004FF0805545EA131343EA12634FEA022240
:1028300045EA111545EA10654FEA00260EF0004101
:102840009D4208BF964244F1FD0404F5407402D253
:102850005B084FEA3202B61A65EB03055B084FEAE4
:1028600032024FF480104FF4002CB6EB020E75EBE1
:10287000030E22BFB61A754640EA0C005B084FEA09
:102880003202B6EB020E75EB030E22BFB61A754686
:1028900040EA5C005B084FEA3202B6EB020E75EBD1
:1028A000030E22BFB61A754640EA9C005B084FEA49
:1028B0003202B6EB020E75EB030E22BFB61A754656
:1028C00040EADC0055EA060E18D04FEA051545EA45
:1028D00016754FEA06164FEAC30343EA52734FEAEE
:1028E000C2025FEA1C1CC0D111F4801F0BD141EA67
:1028F00000014FF000004FF0004CB6E711F4801FCC
:1029000004BF01430020B4F1FD0C88BFBCF5E06FAB
:102910003FF6AFAEB5EB030C04BFB6EB020C5FEABB
:10292000500C50F1000041EB045170BD0EF0004E10
:102930004EEA113114EB5C04C2BFD4EB0C0541EA42
:10294000045170BD41F480114FF0000E013C90E63F
:1029500045EA060E8DE60CEA135594EA0C0F08BF03
:1029600095EA0C0F3FF43BAF94EA0C0F0AD150EA02
:1029700001347FF434AF95EA0C0F7FF425AF104695
:1029800019462CE795EA0C0F06D152EA03353FF4BD
:10299000FDAE1046194622E750EA410618BF52EA3A
:1029A00043067FF4C5AE50EA41047FF40DAF52EA0E
:1029B00043057FF4EBAE12E74FF0FF3C06E000BFAB
:1029C0004FF0010C02E000BF4FF0010C4DF804CDB8
:1029D0004FEA410C7FEA6C5C4FEA430C18BF7FEA78
:1029E0006C5C1BD001B050EA410C0CBF52EA430CA6
:1029F00091EA030F02BF90EA020F0020704710F126
:102A0000000F91EA030F58BF994208BF90422CBFB4
:102A1000D8176FEAE37040F0010070474FEA410CAD
:102A20007FEA6C5C02D150EA013C07D14FEA430CCB
:102A30007FEA6C5CD6D152EA033CD3D05DF8040B3C
:102A4000704700BF8446104662468C46194663466E
:102A500000E000BF01B5FFF7B7FF002848BF10F145
:102A6000000F01BD4DF808EDFFF7F4FF0CBF01208A
:102A700000205DF808FB00BF4DF808EDFFF7EAFF06
:102A800034BF012000205DF808FB00BF4DF808EDC1
:102A9000FFF7E0FF94BF012000205DF808FB00BFB6
:102AA0004DF808EDFFF7CEFF94BF012000205DF840
:102AB00008FB00BF4DF808EDFFF7C4FF34BF01204D
:102AC00000205DF808FB00BF4FEA410C7FEA6C5C18
:102AD00002D150EA013C0AD14FEA430C7FEA6C5C18
:102AE00002D152EA033C02D14FF0000070474FF090
:102AF000010070474FEA410212F5001215D211D5BC
:102B00006FF47873B3EB625212D94FEAC12343F0EA
:102B1000004343EA505311F0004F23FA02F018BF6C
:102B2000404270474FF00000704750EA013005D135
:102B300011F0004008BF6FF0004070474FF00000F8
:102B4000704700BF4FEA4102B2F1E04324BFB3F542
:102B5000001CDCF1FE5C0DD901F0004C4FEAC00214
:102B60004CEA5070B2F1004F40EB830008BF20F0F8
:102B70000100704711F0804F21D113F13872BCBFB2
:102B800001F00040704741F480114FEA5252C2F107
:102B90001802C2F1200C10FA0CF320FA02F018BF50
:102BA00040F001004FEAC1234FEAD32303FA0CFCA3
:102BB00040EA0C0023FA02F34FEA4303CCE77FEA32
:102BC000625307D150EA01331EBF4FF0FE4040F47C
:102BD0004000704701F0004040F0FE4040F400002B
:102BE000704700BF014B1868704700BF080CFF1FFB
:102BF00070B50F4E0F4D761BB61018BF002405D0D0
:102C0000013455F8043B9847A642F9D10A4E0B4DC2
:102C1000761B00F0F1F9B61018BF002406D001347D
:102C200055F8043B9847A642F9D170BD70BD00BF6E
:102C300004300000043000001030000004300000B8
:102C4000024B13B1024800F005B8704700000000C5
:102C5000612C0000002301461A46184600F014B803
:102C600038B5074D074C2C1BA41005D0013C55F876
:102C7000043D9847002CF9D1BDE8384000F0C8B9B0
:102C800000000000000000002DE9F047254C2568F9
:102C9000D5F848410646884692469946C4B36068CE
:102CA0001F2817DC431C76B104EB80050122C5F810
:102CB00088A0D4F8881182401143022EC4F88811EC
:102CC000C5F808911ED00230636044F820800020CF
:102CD000BDE8F087144B03B34FF4C870AFF3008026
:102CE0000446D0B1D5F84831002780E88800C5F8FF
:102CF000484138460123C4F88871C4F88C71002E0D
:102D0000E1D0D1E7D4F88C110A43C4F88C21DAE77A
:102D100005F5A674C5F84841C1E74FF0FF30BDE89E
:102D2000F08700BFF42F000000000000000000004A
:102D300000000000CD04000039050000410600003D
:102D4000E5050000C1040000C90400000001020301
:102D500007FFFFFF0000000000000000E105000089
:102D60000106000041060000E5050000000000002B
:102D700000000000A90A000039050000410600001B
:102D8000E50500009D0A0000A50A000000010203FD
:102D90000407FFFF4008FE4340A004404408FE43F0
:102DA00044A004400018FE4300C004403000FE432D
:102DB000309004403400FE43349004401C18FE431D
:102DC0001CC004401018FE4310C004400818FE4305
:102DD00008C004400C18FE430CC004400C10FE4315
:102DE0000CB004401010FE4310B004401810FE4315
:102DF00018B004401C10FE431CB004401410FE43E5
:102E000014B004400418FE4304C004400010FE4304
:102E100000B004400008FE4300A004400408FE4344
:102E200004A004400C08FE430CA004400808FE4324
:102E300008A004401418FE4314C004401818FE43B0
:102E400018C004400410FE4304B004400810FE43C0
:102E500008B004406820FE4368D004401400FE43DC
:102E6000149004403800FE43389004403C00FE4378
:102E70003C9004404000FE43409004404808FE431C
:102E800048A004404C08FE434CA004402808FE43E0
:102E900028A004402C08FE432CA004406020FE43E0
:102EA00060D004406420FE4364D004402010FE4300
:102EB00020B004402410FE4324B004402810FE43F8
:102EC00028B004402C10FE432CB004404400FE43C4
:102ED000449004407000FE43709004407400FE4330
:102EE000749004406800FE43689004405008FE431C
:102EF00050A004405808FE4358A004405C08FE431C
:102F00005CA004405408FE4354A004402018FE4333
:102F100020C004402418FE4324C004401008FE438F
:102F200010A004401408FE4314A004403818FE43C7
:102F300038C004403418FE4334C004403018FE4307
:102F400030C004403C18FE433CC004402C18FE43F3
:102F50002CC004402820FE4328D004402C20FE43EF
:102F60002CD004400020FE4300D004400420FE4347
:102F700004D004400820FE4308D004400C20FE4347
:102F80000CD004401020FE4310D004401420FE4317
:102F900014D0044000151915000100003807FF1F68
:102FA00012000000000200006407FF1F4300000041
:102FB00000030000C007FF1F000000000103090418
:102FC0004C07FF1F0000000002030904A807FF1FB1
:102FD0000000000003030904C407FF1F00000000F5
:102FE0000000000000000000000000007371727417
:102FF00000000000E007FF1FF8B500BFF8BC08BCE8
:103000009E467047412C000035040000B1040000CA
:04301000F8B500BF50
:10301400FFFFFFFF010A040112011001020000403A
:10302400C016830477020102030100001803540050
:10303400650065006E007300790064007500690026
:103044006E006F0009024300020100C0320904004F
:103054000001020201000524001001052401010100
:10306400042402060524060001070582031000401B
:1030740009040100020A00000007050302400000E1
:103084000705840240000000160355005300420067
:103094002000530065007200690061006C000000AC
:1030A400040309040C0300000000000000000000F9
:1030B400000000000000000000000100000000000B
:1030C40000000000CC0AFF1F340BFF1F9C0BFF1FE6
:1030D40000000000000000000000000000000000EC
:1030E40000000000000000000000000000000000DC
:1030F40000000000000000000000000000000000CC
:1031040000000000000000000000000000000000BB
:1031140000000000000000000000000000000000AB
:10312400000000000000000000000000000000009B
:10313400000000000000000000000000000000008B
:10314400000000000000000000000000000000007B
:10315400000000000000000000000000000000006B
:10316400000000000000000001000000000000005A
:103174000E33CDAB34126DE6ECDE05000B0000001F
:10318400000000000000000000000000000000003B
:10319400000000000000000000000000000000002B
:1031A400000000000000000000000000000000001B
:1031B400000000000000000000000000000000000B
:0C34E4000000000000000000E007FF1FD7
:00000001FF
